:020000040000FA
:060000000A128A110C280F
:10000800FE00030EF8000A08F9000A128A150C2FE0
:100018000A128A110F280A128A11F4270A128A1161
:10002800C0000A128A11F5270A128A11C1000A12A1
:100038008A11F6270A128A11C2000A128A11F727B2
:100048000A128A11C3000A128A11F8270A128A11A1
:10005800C40083132030840032300A128A11EC273E
:100068000A128A11F001F101F201F301F40183018E
:100078000A128A113F280A128A1146270A128A117F
:10008800831203139F149F184A284B287E281F0C9D
:10009800BD003D0C0F39053A031D53285428592833
:1000A8001F08C33918389F0074281F0CBD003D0C69
:1000B8000F39063A031D6128622867281F08C339CB
:1000C80014389F0074281F0CBD003D0C0F39073AE7
:1000D800031D6F28702874281F08C33914389F001F
:1000E800203083120313BD00BD0B78280000831253
:1000F80003139F140C1E81288228B52C4208430440
:1001080003198728882895280030B6008530B7005D
:100118000A128A1578250A128A1183120313C2015A
:10012800C30131307406031D9A289B28B52C013071
:10013800C2000030C300F401992C83120313420853
:1001480043040319A828A928ED289B30B600863057
:10015800B7000A128A1578250A128A110C30831200
:100168000313B6008730B7000A128A1578250A12D9
:100178008A11E63083120313B6008630B7000A12DC
:100188008A1578250A128A11F93083120313B600EA
:100198008630B7000A128A1578250A128A110030AB
:1001A80083120313B6008630B7000A128A15782521
:1001B8000A128A11433083120313B6008630B7003F
:1001C8000A128A1578250A128A1183120313C201AA
:1001D800C30131307406031DF228F328482ADC30A5
:1001E800B6008530B7000A128A1578250A128A11D6
:1001F800633083120313B6008530B7000A128A15DC
:1002080078250A128A11013083120313C2000030C4
:10021800C300F40174080319122913290E29313077
:100228007406031D1829192940298312031388010C
:100238000808BD0003103D0C803E950008182529CC
:1002480029298312031397162C2983120313971253
:10025800831603131E0883120313BD00073003100F
:10026800BD0CFF3E031D33293D08BE00BE0E170816
:100278003E06EF393E06970032307406031D4529C5
:1002880046296E2980308312031388000808BD00B0
:1002980003103D0C803E95000818532957298312F6
:1002A800031397165A2983120313971283160313FD
:1002B8001E0883120313BD0007300310BD0CFF3E58
:1002C800031D61293D08BE00BE0E17083E06EF3922
:1002D8003E06970033307406031D732974299C2940
:1002E800FF308312031388000808BD0003103D0C7B
:1002F800783E9500081881298529831203139716DB
:100308008829831203139712831603131E08831276
:100318000313BD0007300310BD0CFF3E031D8F29DA
:100328003D08BE00BE0E17083E06EF393E06970090
:10033800B73083120313B6008530B7000A128A1546
:1003480078250A128A11633083120313B6008530A8
:10035800B7000A128A1578250A128A110130831209
:100368000313C2000030C300F40174080319BD2947
:10037800BE29B92931307406031DC329C429EB29C4
:100388008312031388010808BD0003103D0C803E4A
:100398009B000818D029D429831203139D16D72946
:1003A800831203139D12831603131E08831203136B
:1003B800BD0007300310BD0CFF3E031DDE293D08BC
:1003C800BE00BE0E1D083E06EF393E069D003230C7
:1003D8007406031DF029F129192A803083120313AA
:1003E80088000808BD0003103D0C803E9B000818DB
:1003F800FE29022A831203139D16052A831203136A
:100408009D12831603131E0883120313BD000730C1
:100418000310BD0CFF3E031D0C2A3D08BE00BE0E96
:100428001D083E06EF393E069D0033307406031D55
:100438001E2A1F2A472AFF30831203138800080840
:10044800BD0003103D0C803E9B0008182C2A302A62
:10045800831203139D16332A831203139D128316E6
:1004680003131E0883120313BD0007300310BD0CCD
:10047800FF3E031D3A2A3D08BE00BE0E1D083E067B
:10048800EF393E069D00F40132307406031D4D2AF3
:100498004E2AFE2A913083120313B6008530B70026
:1004A8000A128A1578250A128A113A308312031320
:1004B800B6008730B7000A128A1578250A128A1101
:1004C8001E3083120313B6008730B7000A128A154C
:1004D80078250A128A11CF3083120313B6008630AA
:1004E800B7000A128A1578250A128A11B6308312C3
:1004F8000313B6008630B7000A128A1578250A1247
:100508008A11013083120313C2000030C300F401C2
:1005180074080319902A912A8C2A34307406031D12
:10052800962A972AAC2A02308312031385000330D7
:1005380083120313BF008A30BE005530BD00BD0BC7
:10054800A32ABE0BA32ABF0BA32A83120313850178
:1005580033307406031DB12AB22AC72A0130831228
:1005680003138500033083120313BF008A30BE00D3
:100578005530BD00BD0BBE2ABE0BBE2ABF0BBE2A1E
:1005880083120313850131307406031DCC2ACD2A4A
:10059800E22A0830831203138500333083120313D1
:1005A800BF00BB30BE00DF30BD00BD0BD92ABE0B7B
:1005B800D92ABF0BD92A8312031385013230740656
:1005C800031DE72AE82AFD2A043083120313850055
:1005D800333083120313BF00BB30BE00DF30BD00D1
:1005E800BD0BF42ABE0BF42ABF0BF42A83120313A3
:1005F8008501F40133307406031D032B042BAB2B48
:10060800913083120313B6008530B7000A128A1599
:1006180078250A128A11613083120313B6008630D6
:10062800B7000A128A1578250A128A117F308312B8
:100638000313B6008630B7000A128A1578250A1205
:100648008A112D3083120313B6008730B7000A12BF
:100658008A1578250A128A11013083120313C20001
:100668000030C300F401740803193B2B3C2B372BD3
:1006780031307406031D412B422B472B8312031381
:1006880085010516851632307406031D4C2B4D2B3B
:10069800522B83120313850105178517333074060F
:1006A800031D572B582BAA2BF030831203138500F8
:1006B800153083120313BF004B30BE00BD30BD00A0
:1006C800BD0B642BBE0B642BBF0B642B6B2B8312EF
:1006D80003138501F0308500153083120313BF0022
:1006E8004B30BE00BD30BD00BD0B782BBE0B782B48
:1006F800BF0B782B7F2B831203138501F030850005
:10070800153083120313BF004B30BE00BD30BD004F
:10071800BD0B8C2BBE0B8C2BBF0B8C2B932B8312FE
:1007280003138501F0308500153083120313BF00D1
:100738004B30BE00BD30BD00BD0BA02BBE0BA02BA7
:10074800BF0BA02BA72B831203138501F4013430B0
:100758007406031DB02BB12B992C0130831203139F
:10076800C2000030C3001F08C3391C389F00203066
:1007780083120313BD00BD0BBF2B000083120313AC
:100788009F14203083120313BD00BD0BC92B00003A
:10079800831203131E08BD00BE013D08AE003E08CB
:1007A800AF00203083120313BD00BD0BD92B00000E
:1007B800831203132F08F1002E08F0006430B200F2
:1007C8000030B3007108B5007008B4000A128A1529
:1007D8002A260A128A11831203133308AD0032083D
:1007E800AC006430B2000030B3007108B500700886
:1007F800B4000A128A15CF250A128A11831203132C
:100808003308A9003208A8000A30B2000030B3004B
:100818002908B5002808B4000A128A152A260A12DF
:100828008A11831203133308AB003208AA000A3076
:10083800B2000030B3007108B5007008B4000A12A5
:100848008A15CF250A128A11831203133308A700C9
:100858003208A6002330B6008630B7000A128A157F
:1008680078250A128A11831203132D08B3002C0865
:10087800B2000A128A1593260A128A1183120313E8
:10088800320899001A3083120313BE00F730BD00F6
:10089800BD0B4C2CBE0B4C2C512C831203132B0874
:1008A800B3002A08B2000A128A1593260A128A117E
:1008B80083120313320899001A3083120313BE00FF
:1008C800F730BD00BD0B662CBE0B662C6B2C83125B
:1008D80003132708B3002608B2000A128A159326C4
:1008E8000A128A1183120313320899001A308312EC
:1008F8000313BE00F730BD00BD0B802CBE0B802C4F
:10090800852C0D308312031399001A3083120313B8
:10091800BE00F730BD00BD0B8F2CBE0B8F2C942C66
:100928000B308312031399009F2835307406031D7A
:100938009E2C9F2CA12835307406031DA42CA52CB1
:10094800B52C323083120313B6008530B7000A1273
:100958008A1578250A128A1183120313C201C3016A
:10096800B52C0A128A110C28FF1BC22C83137F187E
:1009780083170008840A0319FF0A08007F087F39D3
:0C0988008A000408840A0319FF0A820098
:100A00005334693420346434653473346534613468
:100A1000203469346E34673472346534733461342D
:100A200072342034613420346D346F3464346F3464
:100A3000203463346F346E34743472346F346C34F5
:100A400020345534533441345234543420347034C7
:100A500072346534733469346F346E3465342034E1
:100A60003134003449346E3467347234653473344D
:100A700065342034313420347334693420346434A0
:100A80006534733465346134203469346E346734CA
:100A900072346534733461347234203461342034F8
:100AA0006D346F3464346F34203463346F346E3497
:100AB000743472346F346C342034553453344134CC
:100AC00052345434003449346E34673472346534EB
:100AD000733465343A3420342834313429342034A2
:100AE000303467347234613464346F347334203496
:100AF0002834323429343934303467347234613430
:100B000064346F347334203428343334293431342A
:100B10003834303467347234613464346F3473344D
:100B2000003445346C3469346A34613420347534AB
:100B30006E34613420346434653420346C34613470
:100B400073342034733469346734753469346534EC
:100B50006E347434653473342034613463346334F4
:100B600069346F346E34653473343A340034453448
:100B70006C3469346A34613420346C346134203428
:100B800070346F3473346934633469346F346E3461
:100B90002034643465346C34203473346534673401
:100BA00075346E3464346F34203473346534723485
:100BB00076346F343A34003445346C3469346A34F2
:100BC000613420346C346134203470346F347334C5
:100BD0006934633469346F346E342034643465347A
:100BE0006C3420347034723469346D34653472344A
:100BF000203473346534723476346F343A340034CC
:100C00002834343429344D346F34733474347234AA
:100C1000613472342034763461346C346F3472341D
:100C20002034643465346C34203470346F3474345C
:100C300065346E34633469346F346D3465347434C0
:100C400072346F34003445346C342034763461347B
:100C50006C346F347234203465346E342034643430
:100C60006534633469346D3461346C3420346434F5
:100C700065346C34203470346F347434203465340B
:100C800073343A34003428343534293453346134DD
:100C90006C34693472342034643465342034633401
:100CA0006F346E34743472346F346C342034703476
:100CB0006F34723420345534533441345234543404
:100CC0000034283431342934203445346E346334CC
:100CD00065346E3464346534723420346C34753465
:100CE0006334653473342034643465346C34613473
:100CF0006E3474346534723461347334003428349F
:100D000032342934203445346E34633465346E34DF
:100D100064346534723420346C347534633465342F
:100D200073342034743472346134733465347234FF
:100D30006134733400345134753465342034613493
:100D40006334633469346F346E342034643465340E
:100D5000733465346134203465346A346534633403
:100D600075347434613472343F340034283434348C
:100D70002934203447346934723461347234203475
:100D8000613420346C346134203469347A34713401
:100D90007534693465347234643461340034283411
:100DA0003334293420344734693472346134723432
:100DB0002034613420346C3461342034643465343C
:100DC0007234653463346834613400342834323426
:100DD000293443346F346E34743472346F346C3469
:100DE00061347234203443346134723472346F3479
:100DF000003428343334293443346F346E3474343B
:100E000072346F346C346134723420344C34753441
:100E10006334653473340034283431342934433432
:100E20006F346E34743472346F346C3461347234B1
:100E30002034473472347534613400342834323409
:100E40002934203452346534743472346F3463344A
:100E500065346434653472340034283433342934CE
:100E60002034503461347234703461346434653405
:100E70006F3400342834313429342034413476340A
:100E800061346E347A34613472340034831603135F
:100E90000F178F160F160F14831603178901703062
:100EA0008800831603138501FF308600B930870060
:100EB0008801033089008113FF30950083120313EA
:100EC00085010F308600870188018901831603138D
:100ED0009F131F129F12831203131F083F3980387C
:100EE0009F001F08C33914389F002030831203135A
:100EF000B200B20B792F0000831203131F14FA30D3
:100F00008316031392003F308312031397051708CB
:100F1000F0390C3897001D08F0390C389D000F305F
:100F200095000F309B00CF3097059D121D128C103D
:100F30009214121412158C1C9E2F9F2F9B2F8C1015
:100F40008316031318121815831603178715CF304D
:100F50008316031399009A01831203139817181329
:100F600018168316031398168B178B150B100B1777
:100F70000C17831203130C13831603138C1683129E
:100F800003138C120F308316031396000B10080006
:100F9000831203133208B4003308B500D52F013093
:100FA000B4070318B50A0030B5073508FF00340848
:100FB00084000A128A11B8240A128A11003A031D09
:100FC000E22FE32FCF2F32083402B2003308031C84
:100FD000330A3502B300080064008001840A040665
:100FE000031900340406ED2F1034003401340034AA
:020FF0001034BB
:101AF00083120313BB01BC01A82D1A3083120313F8
:101B0000B900F730B800B80B832DB90B832D882DA1
:101B1000831203133B083607B9003708B8000318CF
:101B2000B80ABB1F942DB803831203133808BA00F8
:101B30003A08FF00390884000A128A11B8240A12F0
:101B40008A1599000130BB070318BC0A0030BC0796
:101B50003608B2003708B3000A128A11C8270A12E1
:101B60008A158312031333083C02031DB92D320872
:101B70003B02031CBC2DBD2D7D2D0D3099001A306C
:101B800083120313B900F730B800B80BC52DB90B99
:101B9000C52DCA2D0B308312031399000800831240
:101BA0000313B801B51FD52DD62DDD2DB409B50908
:101BB000B40A0319B50AB801B80AB31FE02DE12D24
:101BC000E62DB209B309B20A0319B30A3208330485
:101BD0000319EB2DEC2D1B2EB701B70AFA2D01309E
:101BE0000310B20DB30DFF3E031DF02D0130B60002
:101BF0003608B707B31FFD2DFE2DEF2D3308350234
:101C0000031D042E32083402031C072E082E0E2E4C
:101C10003208B4023308031CB503B50201300310C7
:101C2000B30CB20CFF3E031D0F2E0130B702031D93
:101C30001A2E1B2EFE2D380803191F2E202E252E9E
:101C4000B409B509B40A0319B50A3508B300340854
:101C5000B200080083120313B801B31F302E312ED7
:101C6000382EB209B309B20A0319B30AB801B80A87
:101C7000B51F3B2E3C2E452EB409B509B40A0319F5
:101C8000B50A0130B6003608B806B901BA01320803
:101C9000330403194C2E4D2E842EB701B70A5B2E48
:101CA00001300310B20DB30DFF3E031D512E013064
:101CB000B6003608B707B31F5E2E5F2E502E0130D8
:101CC0000310B90DBA0DFF3E031D602E3308350217
:101CD000031D6C2E32083402031C6F2E702E772EDB
:101CE0003208B4023308031CB503B50239140130BD
:101CF0000310B30CB20CFF3E031D782E0130B70267
:101D0000031D832E842E5F2E38080319882E892EFA
:101D10008E2EB909BA09B90A0319BA0A3A08B300EA
:101D20003908B20008008312031332083304031D7C
:101D30009A2E9B2EA02E3030B2000030B3000B2F15
:101D400032033304031DA52EA62EAB2E3130B20074
:101D50000030B3000B2F023032063304031DB12EC6
:101D6000B22EB72E3230B2000030B3000B2F03304A
:101D700032063304031DBD2EBE2EC32E3330B200F7
:101D80000030B3000B2F043032063304031DC92E7C
:101D9000CA2ECF2E3430B2000030B3000B2F0530E6
:101DA00032063304031DD52ED62EDB2E3530B2007D
:101DB0000030B3000B2F063032063304031DE12E32
:101DC000E22EE72E3630B2000030B3000B2F073082
:101DD00032063304031DED2EEE2EF32E3730B20003
:101DE0000030B3000B2F083032063304031DF92EE8
:101DF000FA2EFF2E3830B2000030B3000B2F09301E
:101E000032063304031D052F062F0B2F3930B20085
:101E10000030B3000B2F0800831203138C1E112F08
:101E2000122F162F1A08F5007508F4000C1F192F31
:101E30001A2F712F1F0CF500750C0F39053A031D71
:101E4000222F232F4A2F1E0888000808F5000310B0
:101E5000750C803E950008182E2F322F8312031325
:101E60009716352F831203139712831603131E0838
:101E7000F50007300310F50CFF3E031D3A2F7508DF
:101E8000F600F60E8312031317087606EF3976066E
:101E90009700702F1E0888000808F5000310750CC5
:101EA000803E9B000818552F592F831203139D164F
:101EB0005C2F831203139D12831603131E08F50073
:101EC00007300310F50CFF3E031D612F7508F60067
:101ED000F60E831203131D087606EF3976069D0071
:101EE0000C130B1C742F752FF92F0618782F792FD0
:101EF000A52F3008310403197E2F7F2F932F0A302E
:101F000085000330F7008A30F6005530F500F50BF8
:101F1000872FF60B872FF70B872F8E2F0830831212
:101F200003138500A52F023085000330F7008A30A7
:101F3000F6005530F500F50B9B2FF60B9B2FF70B9A
:101F40009B2FA22F8312031385018618A82FA92F78
:101F5000D52F300831040319AE2FAF2FC32F09300E
:101F600085000330F7008A30F6005530F500F50B98
:101F7000B72FF60BB72FF70BB72FBE2F08308312F2
:101F800003138500D52F013085000330F7008A3018
:101F9000F6005530F500F50BCB2FF60BCB2FF70BDA
:101FA000CB2FD22F8312031385010619D82FD92FD7
:101FB000E12F083085000130B0000030B100051677
:101FC00085168619E42FE52FED2F043085000130AA
:101FD000B0000030B10005178517861DF02FF12FD6
:101FE000F82F061DF42FF52FF82F8501B001B10150
:101FF0000B1079088A00780E8300FE0E7E0E090011
:04400E00C420FF3F8C
:00000001FF
