:020000040000FA
:060000000A128A110C280F
:10000800FE00030EF6000A08F7000A128A156B2E86
:100018000A128A110F280A128A11FC250A128A115B
:10002800BA000A128A11FD250A128A11BB000A12A7
:100038008A11FE250A128A11BC000A128A11FF25AC
:100048000A128A11FA00AE01AF01B001B101B20182
:10005800B301B401B501B601B701B801B901F8019E
:10006800F90183010A128A1139280A128A116825AE
:100078000A128A11831203139F149F1844284528D3
:1000880078281F0CAB002B0C0F39053A031D4D289F
:100098004E2853281F08C33918389F006E281F0C94
:1000A800AB002B0C0F39063A031D5B285C2861282E
:1000B8001F08C33914389F006E281F0CAB002B0C87
:1000C8000F39073A031D69286A286E281F08C339A3
:1000D80014389F00203083120313AB00AB0B722837
:1000E8000000831203139F140C1E7B287C28032D09
:1000F8003A083B040319812882288F280030A4007D
:100108008630A5000A128A1550250A128A11831210
:100118000313BA01BB0131303906031D9428952811
:10012800032D0130BA000030BB00B901EA2C3A08AF
:100138003B040319A028A128E5281C30A400873017
:10014800A5000A128A1550250A128A11A6308312B0
:100158000313A4008730A5000A128A1550250A1235
:100168008A11803083120313A4008730A5000A1275
:100178008A1550250A128A11933083120313A4009A
:100188008730A5000A128A1550250A128A11A13053
:1001980083120313A4008630A5000A128A1550257D
:1001A8000A128A11C43083120313A4008630A500F2
:1001B8000A128A1550250A128A1183120313BA01EA
:1001C800BB0131303906031DEA28EB285E2A7D3051
:1001D800A4008630A5000A128A1550250A128A1131
:1001E800D93083120313A4008730A5000A128A1598
:1001F80050250A128A11C93083120313A4008730CC
:10020800A5000A128A1550250A128A11B8308312DD
:100218000313A4008730A5000A128A1550250A1274
:100228008A11013083120313BA000030BB00B901F0
:1002380039080319202921291C2931303906031DC1
:10024800262927294C2988010808AB0003102B0C04
:10025800803E950008183129352983120313971613
:100268003829831203139712831603131E08831267
:100278000313AB0007300310AB0CFF3E031D3F29EF
:100288002B08AC00AC0E17082C06EF392C0697008B
:1002980032303906031D51295229782980308800C7
:1002A8000808AB0003102B0C803E950008185D2948
:1002B8006129831203139716642983120313971273
:1002C800831603131E0883120313AB0007300310B1
:1002D800AB0CFF3E031D6B292B08AC00AC0E1708B6
:1002E8002C06EF392C06970033303906031D7D297B
:1002F8007E29A429FF3088000808AB0003102B0CC6
:10030800783E9500081889298D29831203139716BA
:100318009029831203139712831603131E0883125E
:100328000313AB0007300310AB0CFF3E031D9729E6
:100338002B08AC00AC0E17082C06EF392C069700DA
:100348005830A4008630A5000A128A1550250A12D2
:100358008A11D93083120313A4008730A5000A122A
:100368008A1550250A128A11C93083120313A40072
:100378008730A5000A128A1550250A128A11B8304A
:1003880083120313A4008730A5000A128A1550258A
:100398000A128A11013083120313BA000030BB001D
:1003A800B90139080319D929DA29D529313039068B
:1003B800031DDF29E029052A88010808AB0003107E
:1003C8002B0C803E9B000818EA29EE2983120313A0
:1003D8009D16F129831203139D12831603131E0819
:1003E80083120313AB0007300310AB0CFF3E031D51
:1003F800F8292B08AC00AC0E1D082C06EF392C068A
:100408009D0032303906031D0A2A0B2A312A803012
:1004180088000808AB0003102B0C803E9B000818CE
:10042800162A1A2A831203139D161D2A83120313F0
:100438009D12831603131E0883120313AB000730A3
:100448000310AB0CFF3E031D242A2B08AC00AC0E96
:100458001D082C06EF392C069D0033303906031D84
:10046800362A372A5D2AFF3088000808AB000310B7
:100478002B0C803E9B000818422A462A831203133D
:100488009D16492A831203139D12831603131E080F
:1004980083120313AB0007300310AB0CFF3E031DA0
:1004A800502A2B08AC00AC0E1D082C06EF392C0680
:1004B8009D00B90132303906031D632A642A0E2BC8
:1004C8003230A4008630A5000A128A1550250A1277
:1004D8008A11043083120313A4008830A5000A127D
:1004E8008A1550250A128A11E83083120313A400D2
:1004F8008730A5000A128A1550250A128A11693018
:1005080083120313A4008730A5000A128A15502508
:100518000A128A11503083120313A4008730A500F1
:100528000A128A1550250A128A1101308312031300
:10053800BA000030BB00B90139080319A42AA52A5A
:10054800A02A34303906031DAA2AAB2ABF2A023052
:100558008500043083120313AD008E30AC001130D7
:10056800AB00AB0BB52AAC0BB52AAD0BB52ABC2A30
:1005780083120313850133303906031DC42AC52AA3
:10058800D92A01308500043083120313AD008E3060
:10059800AC001130AB00AB0BCF2AAC0BCF2AAD0BA4
:1005A800CF2AD62A83120313850131303906031D59
:1005B800DE2ADF2AF32A083085001F30831203134E
:1005C800AD007130AC001D30AB00AB0BE92AAC0BB1
:1005D800E92AAD0BE92AF02A831203138501323088
:1005E8003906031DF82AF92A0D2B043085001F301F
:1005F80083120313AD007130AC001D30AB00AB0BA0
:10060800032BAC0B032BAD0B032B0A2B8312031309
:100618008501B90133303906031D132B142B012C26
:100628003230A4008630A5000A128A1550250A1215
:100638008A11E23083120313A4008630A5000A123F
:100648008A1550250A128A11003083120313A40058
:100658008730A5000A128A1550250A128A11F73028
:1006680083120313A4008730A5000A128A155025A7
:100678000A128A11013083120313BA000030BB003A
:10068800B90139080319492B4A2B452B3130390652
:10069800031D4F2B502B642B850105171F30831228
:1006A8000313AD007130AC001D30AB00AB0B5A2BFF
:1006B800AC0B5A2BAD0B5A2B612B831203138501FC
:1006C80032303906031D692B6A2B7E2B850185176D
:1006D8001F3083120313AD007130AC001D30AB0026
:1006E800AB0B742BAC0B742BAD0B742B7B2B8312C5
:1006F8000313850133303906031D832B842B002C0B
:10070800F0308500063083120313AD001330AC00BF
:10071800AD30AB00AB0B8E2BAC0B8E2BAD0B8E2BF9
:10072800831203138501063083120313AD001330BF
:10073800AC00AD30AB00AB0B9F2BAC0B9F2BAD0BC4
:100748009F2BF030831203138500063083120313A6
:10075800AD001330AC00AD30AB00AB0BB12BAC0B24
:10076800B12BAD0BB12B8312031385010630831215
:100778000313AD001330AC00AD30AB00AB0BC22B94
:10078800AC0BC22BAD0BC22BF030831203138500C8
:10079800063083120313AD001330AC00AD30AB004C
:1007A800AB0BD42BAC0BD42BAD0BD42B8312031374
:1007B8008501063083120313AD001330AC00AD3051
:1007C800AB00AB0BE52BAC0BE52BAD0BE52BF03001
:1007D800831203138500063083120313AD00133010
:1007E800AC00AD30AB00AB0BF72BAC0BF72BAD0B64
:1007F800F72B831203138501B90134303906031D21
:10080800062C072CEA2C0130BA000030BB001F0868
:10081800C3391C389F00203083120313AB00AB0B85
:10082800132C0000831203139F1420308312031328
:10083800AB00AB0B1D2C0000831203131E08AB008A
:100848002B08B600203083120313AB00AB0B2A2C05
:100858000000831203133608AB002B08B500643080
:10086800A0000030A1003508AB00AC012B08A200A5
:100878002C08A3000A128A1502260A128A1183126A
:1008880003132008AD002D08B4006430A000003028
:10089800A1003508AB00AC012B08A2002C08A3006E
:1008A8000A128A15A7250A128A118312031320082F
:1008B800AD002D08B2000A30A0000030A1003208B7
:1008C800AB00AC012B08A2002C08A3000A128A1561
:1008D80002260A128A11831203132008AD002D087C
:1008E800B3000A30A0000030A1003508AB00AC010D
:1008F8002B08A2002C08A3000A128A15A7250A12A1
:100908008A11831203132008AD002D08B100373077
:10091800A4008730A5000A128A1550250A128A11E8
:100928008312031334080A128A15FE240A128A1144
:100938008312031399001A3083120313AC00F730A3
:10094800AB00AB0BA52CAC0BA52CAA2C8312031364
:1009580033080A128A15FE240A128A118312031315
:1009680099001A3083120313AC00F730AB00AB0BBD
:10097800BB2CAC0BBB2CC02C8312031331080A12FE
:100988008A15FE240A128A118312031399001A3059
:1009980083120313AC00F730AB00AB0BD12CAC0BBC
:1009A800D12CD62C0D308312031399001A308312E0
:1009B8000313AC00F730AB00AB0BE02CAC0BE02C16
:1009C800E52C0B308312031399009928353039062A
:1009D800031DEF2CF02C9B2835303906031DF52C10
:1009E800F62C032D0030A4008630A5000A128A15C3
:1009F80050250A128A1183120313BA01BB01061A81
:100A0800062D072D0B2D0130AE000030AF00061E5D
:100A18000E2D0F2D41282E032F04031D142D152DE7
:100A280041283808AB002B08B0003C08AB002B0865
:100A3800A00030080A128A15C0240A128A11173039
:100A4800831203133C06031D2A2D2B2D302D103045
:100A5800AB002B08BC00352D3C08013EAB002B0831
:100A6800BC001A3083120313AC00F730AB00AB0B99
:100A78003B2DAC0B3B2D402D831203133708AB00E5
:100A88002B08B0003C08AB002B08A00030080A1265
:100A98008A15C0240A128A111730831203133C06E0
:100AA800031D572D582D5D2D1030AB002B08BC00B1
:100AB800622D3C08013EAB002B08BC00AE01AF0123
:100AC80041280A128A110C28831603130F178F1650
:100AD8000F160F14831603178901E0308800831658
:100AE80003138501FF308600B9308700880107307D
:100AF80089008113FF309500831203138501FF30AD
:100B08008600870188018901831603139F131F122A
:100B18009F12831203131F083F3980389F001F0854
:100B2800C33914389F00203083120313A000A00B90
:100B38009B2D0000831203131F14FA30831603132E
:100B480092003F308312031397051708F0390C38C9
:100B580097001D08F0390C389D000F3095000F30B4
:100B68009B00CF3097059D121D128C109214121401
:100B780012158C1CC02DC12DBD2D8C10831603138E
:100B880018121815831603178715CF308316031309
:100B980099009A01831203139817181318168316CD
:100BA800031398168B178B150B100B170C17831242
:100BB80003130C13831603138C16831203138C125E
:100BC800FF308316031396000B100800FF1BF42D4B
:100BD80083137F1883170008840A0319FF0A080083
:100BE8007F087F398A000408840A0319FF0A8200F3
:100BF80001340034103410345334693420346434EC
:100C08006534733465346134203469346E34673440
:100C1800723465347334613472342034613420346E
:100C28006D346F3464346F34203463346F346E340D
:100C3800743472346F346C34203455345334413442
:100C48005234543420347034723465347334693413
:100C58006F346E34653420343134003445346C34A8
:100C680069346A346134203475346E346134203424
:100C78006434653420346C34613473342034733410
:100C8800693467347534693465346E347434653462
:100C98007334203461346334633469346F346E34AC
:100CA800653473343A34003445346C3469346A3406
:100CB800613420346C346134203470346F347334CC
:100CC8006934633469346F346E3420346434653481
:100CD8006C34203473346534673475346E3464345A
:100CE8006F34203473346534723476346F343A3464
:100CF800003445346C3469346A34613420346C34DB
:100D08006134203470346F34733469346334693433
:100D18006F346E342034643465346C342034703469
:100D2800723469346D346534723420347334653404
:100D3800723476346F343A340034283434342934F5
:100D48004D346F34733474347234613472342034F3
:100D5800763461346C346F347234203464346534DE
:100D68006C34203470346F34743465346E346334C6
:100D780069346F346D346534743472346F340034CC
:100D8800283435342934533461346C34693472343A
:100D9800203464346534203463346F346E347434EE
:100DA80072346F346C34203470346F3472342034BD
:100DB80055345334413452345434003428343134A3
:100DC8002934203445346E34633465346E346434E5
:100DD8006534723420346C34753463346534733458
:100DE8002034643465346C3461346E34743465345E
:100DF8007234613473340034283432342934203462
:100E080045346E34633465346E3464346534723416
:100E180020346C347534633465347334203474345A
:100E28007234613473346534723461347334003429
:100E3800513475346534203461346334633469342F
:100E48006F346E34203464346534733465346134FB
:100E5800203465346A3465346334753474346134E9
:100E680072343F340034563461346C346F34723425
:100E78002034643465346C34203470346F34743402
:100E880065346E34633469346F346D346534743466
:100E980072346F343A3400342834343429342034EA
:100EA8004734693472346134723420346134203404
:100EB8006C346134203469347A347134753469346B
:100EC800653472346434613400342834333429345A
:100ED80020344734693472346134723420346134D4
:100EE80020346C34613420346434653472346534AD
:100EF8006334683461340034283432342934433458
:100F08006F346E34743472346F346C3461347234C8
:100F1800203443346134723472346F3400342834EA
:100F28003334293443346F346E34743472346F3448
:100F38006C346134723420344C3475346334653421
:100F48007334003428343134293443346F346E34E4
:100F5800743472346F346C346134723420344734EE
:100F680072347534613400342834333429342034ED
:100F780031343834303420345B346734723461347B
:100F880064346F3473345D34003428343234293493
:100F980020343934303420345B346734723461346B
:100FA80064346F3473345D34003428343134293474
:100FB8002034303420345B34673472346134643420
:100FC8006F3473345D340034283432342934203497
:100FD80052346534743472346F3463346534643431
:100FE800653472340034283433342934203450348E
:100FF8006134723470346134643465346F3400346D
:1010080028343134293420344134763461346E3410
:081018007A34613472340034B3
:10195E00F1007108831203178D00831603178C1381
:10196E000C14831203170C08F0007008F2007208B2
:10197E00080083120313A1002008831203178D00A1
:10198E00831203132108831203178C008316031787
:10199E008C130C158B1355308D00AA308D008C14C2
:1019AE000C118B170800831203132008A2002108C4
:1019BE00A300E72C0130A2070318A30A0030A307E7
:1019CE002308FF00220884000A128A11EA250A124F
:1019DE008A15003A031DF42CF52CE12C2008220266
:1019EE00A0002108031C210A2302A1000800831273
:1019FE000313A0002008031D052D062D082D3030E1
:101A0E004F2D2003031D0C2D0D2D0F2D31304F2D7D
:101A1E0002302006031D142D152D172D32304F2D9B
:101A2E0003302006031D1C2D1D2D1F2D33304F2D71
:101A3E0004302006031D242D252D272D34304F2D47
:101A4E0005302006031D2C2D2D2D2F2D35304F2D1D
:101A5E0006302006031D342D352D372D36304F2DF3
:101A6E0007302006031D3C2D3D2D3F2D37304F2DC9
:101A7E0008302006031D442D452D472D38304F2D9F
:101A8E0009302006031D4C2D4D2D4F2D39304F2D75
:101A9E00080083120313A901AA01802D1A308312A4
:101AAE000313A700F730A600A60B5B2DA70B5B2D2B
:101ABE00602D8312031329082407A7002508A6000A
:101ACE000318A60AA91F6C2DA6038312031326085A
:101ADE00A8002808FF00270884000A128A11EA25A8
:101AEE000A128A1599000130A9070318AA0A0030B4
:101AFE00AA072408A0002508A1000A128A15DA24D4
:101B0E000A128A158312031321082A02031D912D2E
:101B1E0020082902031C942D952D552D0D3099006A
:101B2E001A3083120313A700F730A600A60B9D2DC3
:101B3E00A70B9D2DA22D0B308312031399000800C5
:101B4E0083120313A601A31FAD2DAE2DB52DA20931
:101B5E00A309A20A0319A30AA601A60AA11FB82D5A
:101B6E00B92DBE2DA009A109A00A0319A10A2008AA
:101B7E0021040319C32DC42DF32DA501A50AD22DC1
:101B8E0001300310A00DA10DFF3E031DC82D013025
:101B9E00A4002408A507A11FD52DD62DC72D2108D9
:101BAE002302031DDC2D20082202031CDF2DE02D55
:101BBE00E62D2008A2022108031CA303A302013074
:101BCE000310A10CA00CFF3E031DE72D0130A50252
:101BDE00031DF22DF32DD62D26080319F72DF82D02
:101BEE00FD2DA209A309A20A0319A30A2308A10025
:101BFE002208A000080083120313A601A11F082EBD
:101C0E00092E102EA009A109A00A0319A10AA601E6
:101C1E00A60AA31F132E142E1D2EA209A309A20A73
:101C2E000319A30A0130A4002408A606A701A801DF
:101C3E00200821040319242E252E5C2EA501A50AA9
:101C4E00332E01300310A00DA10DFF3E031D292ED2
:101C5E000130A4002408A507A11F362E372E282EEA
:101C6E0001300310A70DA80DFF3E031D382E2108CD
:101C7E002302031D442E20082202031C472E482E49
:101C8E004F2E2008A2022108031CA303A30227142F
:101C9E0001300310A10CA00CFF3E031D502E01308D
:101CAE00A502031D5B2E5C2E372E26080319602E0F
:101CBE00612E662EA709A809A70A0319A80A2808E3
:101CCE00A1002708A0000800831203138C1E702E9B
:101CDE00712E752E1A08F3007308B9000C1F782E9A
:101CEE00792EE12E1F0CF300730C0F39053A031DEC
:101CFE00812E822EAD2E1E0888000808F300730870
:101D0E00B8000808F3000310730C803E9500081805
:101D1E00912E952E831203139716982E831203136A
:101D2E009712831603131E08F30007300310F30CEB
:101D3E00FF3E031D9D2E7308F400F40E8312031351
:101D4E0017087406EF3974069700E02E1F0CF30087
:101D5E00730C0F39063A031DB52EB62EE02E1E0853
:101D6E0088000808F3007308B7000808F300031092
:101D7E00730C803E9B000818C52EC92E83120313C8
:101D8E009D16CC2E831203139D12831603131E0869
:101D9E00F30007300310F30CFF3E031DD12E730822
:101DAE00F400F40E831203131D087406EF39740643
:101DBE009D000C130B1CE42EE52EF92F0618E82EB1
:101DCE00E92E152F780879040319EE2EEF2E032F26
:101DDE000A3085000430F5008E30F4001230F30026
:101DEE00F30BF72EF40BF72EF50BF72E0000083041
:101DFE00831203138500152F023085000430F50081
:101E0E008E30F4001230F300F30B0B2FF40B0B2F6C
:101E1E00F50B0B2F00008312031385018618182F64
:101E2E00192F452F7808790403191E2F1F2F332FD2
:101E3E00093085000430F5008E30F4001230F300C6
:101E4E00F30B272FF40B272FF50B272F000008304D
:101E5E00831203138500452F013085000430F500F1
:101E6E008E30F4001230F300F30B3B2FF40B3B2FAC
:101E7E00F50B3B2F00008312031385010619482F23
:101E8E00492F502F083085000130F8000030F9003E
:101E9E0005178619532F542F5B2F04308500013000
:101EAE00F8000030F9008517861D5E2F5F2F662F14
:101EBE00061D622F632F662F8501F801F901861A20
:101ECE00692F6A2FF82F7A080A128A15AF240A1280
:101EDE008A1583120313880017307A06031D782F94
:101EEE00792F7E2F1030F3007308FA00822F013005
:101EFE00F3007308FA070808F3000310730C783E1A
:101F0E00950008188B2F8F2F831203139716922F7D
:101F1E00831203139712831603131E08F300073060
:101F2E000310F30CFF3E031D972F7308F400F40EFD
:101F3E008312031317087406EF39740697001A30CC
:101F4E00F400F830F300F30BAA2FF40BAA2F0000C5
:101F5E007A080A128A15AF240A128A1583120313FD
:101F6E00880017307A06031DBD2FBE2FC32F1030E9
:101F7E00F3007308FA00C72F0130F3007308FA0755
:101F8E000808F3000310730C803E9B000818D02F36
:101F9E00D42F831203139D16D72F831203139D1272
:101FAE00831603131E08F30007300310F30CFF3ED5
:101FBE00031DDC2F7308F400F40E831203131D08A7
:101FCE007406EF3974069D003330F500BB30F40013
:101FDE00DF30F300F30BF12FF40BF12FF50BF12F94
:101FEE00F82F0B1077088A00760E8300FE0E7E0EF9
:021FFE000900D8
:04400E00C420FF3F8C
:00000001FF
