:020000040000FA
:060000000A128A110C280F
:10000800FE00030EF6000A08F7000A128A15692E88
:100018000A128A110F280A128A15CE240A128A1186
:10002800BA000A128A15CF240A128A11BB000A12D2
:100038008A15D0240A128A11BC000A128A11FE25D8
:100048000A128A11FA00AE01AF01B001B101B20182
:10005800B301B401B501B601B701B801B901F8019E
:10006800F90183010A128A1139280A128A114625D0
:100078000A128A11831203139F149F1844284528D3
:1000880078281F0CAB002B0C0F39053A031D4D289F
:100098004E2853281F08C33918389F006E281F0C94
:1000A800AB002B0C0F39063A031D5B285C2861282E
:1000B8001F08C33914389F006E281F0CAB002B0C87
:1000C8000F39073A031D69286A286E281F08C339A3
:1000D80014389F00203083120313AB00AB0B722837
:1000E8000000831203139F140C1E7B287C28E12C2C
:1000F8003A083B040319812882288F280030A4007D
:100108008630A5000A128A154E250A128A11831212
:100118000313BA01BB0131303906031D9428952811
:10012800E12C0130BA000030BB00B901C82C3A08F4
:100138003B040319A028A128E5281C30A400873017
:10014800A5000A128A154E250A128A11A6308312B2
:100158000313A4008730A5000A128A154E250A1237
:100168008A11803083120313A4008730A5000A1275
:100178008A154E250A128A11933083120313A4009C
:100188008730A5000A128A154E250A128A11A13055
:1001980083120313A4008630A5000A128A154E257F
:1001A8000A128A11C43083120313A4008630A500F2
:1001B8000A128A154E250A128A1183120313BA01EC
:1001C800BB0131303906031DEA28EB285E2A7D3051
:1001D800A4008630A5000A128A154E250A128A1133
:1001E800D93083120313A4008730A5000A128A1598
:1001F8004E250A128A11C93083120313A4008730CE
:10020800A5000A128A154E250A128A11B8308312DF
:100218000313A4008730A5000A128A154E250A1276
:100228008A11013083120313BA000030BB00B901F0
:1002380039080319202921291C2931303906031DC1
:10024800262927294C2988010808AB0003102B0C04
:10025800803E950008183129352983120313971613
:100268003829831203139712831603131E08831267
:100278000313AB0007300310AB0CFF3E031D3F29EF
:100288002B08AC00AC0E17082C06EF392C0697008B
:1002980032303906031D51295229782980308800C7
:1002A8000808AB0003102B0C803E950008185D2948
:1002B8006129831203139716642983120313971273
:1002C800831603131E0883120313AB0007300310B1
:1002D800AB0CFF3E031D6B292B08AC00AC0E1708B6
:1002E8002C06EF392C06970033303906031D7D297B
:1002F8007E29A429FF3088000808AB0003102B0CC6
:10030800783E9500081889298D29831203139716BA
:100318009029831203139712831603131E0883125E
:100328000313AB0007300310AB0CFF3E031D9729E6
:100338002B08AC00AC0E17082C06EF392C069700DA
:100348005830A4008630A5000A128A154E250A12D4
:100358008A11D93083120313A4008730A5000A122A
:100368008A154E250A128A11C93083120313A40074
:100378008730A5000A128A154E250A128A11B8304C
:1003880083120313A4008730A5000A128A154E258C
:100398000A128A11013083120313BA000030BB001D
:1003A800B90139080319D929DA29D529313039068B
:1003B800031DDF29E029052A88010808AB0003107E
:1003C8002B0C803E9B000818EA29EE2983120313A0
:1003D8009D16F129831203139D12831603131E0819
:1003E80083120313AB0007300310AB0CFF3E031D51
:1003F800F8292B08AC00AC0E1D082C06EF392C068A
:100408009D0032303906031D0A2A0B2A312A803012
:1004180088000808AB0003102B0C803E9B000818CE
:10042800162A1A2A831203139D161D2A83120313F0
:100438009D12831603131E0883120313AB000730A3
:100448000310AB0CFF3E031D242A2B08AC00AC0E96
:100458001D082C06EF392C069D0033303906031D84
:10046800362A372A5D2AFF3088000808AB000310B7
:100478002B0C803E9B000818422A462A831203133D
:100488009D16492A831203139D12831603131E080F
:1004980083120313AB0007300310AB0CFF3E031DA0
:1004A800502A2B08AC00AC0E1D082C06EF392C0680
:1004B8009D00B90132303906031D632A642A0C2BCA
:1004C8003230A4008630A5000A128A154E250A1279
:1004D8008A11043083120313A4008830A5000A127D
:1004E8008A154E250A128A11E83083120313A400D4
:1004F8008730A5000A128A154E250A128A1169301A
:1005080083120313A4008730A5000A128A154E250A
:100518000A128A11503083120313A4008730A500F1
:100528000A128A154E250A128A1101308312031302
:10053800BA000030BB00B90139080319A42AA52A5A
:10054800A02A34303906031DAA2AAB2ABE2A023053
:100558008500033083120313AD008A30AC00553098
:10056800AB00AB0BB52AAC0BB52AAD0BB52A831281
:100578000313850133303906031DC32AC42AD72A39
:1005880001308500033083120313AD008A30AC00BC
:100598005530AB00AB0BCE2AAC0BCE2AAD0BCE2A16
:1005A80083120313850131303906031DDC2ADD2A45
:1005B800F12A083085001F3083120313AD00713013
:1005C800AC001D30AB00AB0BE72AAC0BE72AAD0B38
:1005D800E72AEE2A83120313850132303906031DF8
:1005E800F62AF72A0B2B043085001F3083120313D9
:1005F800AD007130AC001D30AB00AB0B012BAC0B68
:10060800012BAD0B012B082B831203138501B901B4
:1006180033303906031D112B122BDF2B3230A40087
:100628008630A5000A128A154E250A128A11E23070
:1006380083120313A4008630A5000A128A154E25DA
:100648000A128A11003083120313A4008730A50010
:100658000A128A154E250A128A11F73083120313DB
:10066800A4008730A5000A128A154E250A128A119D
:10067800013083120313BA000030BB00B9013908F6
:100688000319472B482B432B31303906031D4D2BBB
:100698004E2B522B850105168516850132303906F9
:1006A800031D572B582B5C2B8501051785178501D2
:1006B80033303906031D612B622BDE2BF0308500A9
:1006C800063083120313AD001330AC00AD30AB001D
:1006D800AB0B6C2BAC0B6C2BAD0B6C2B831203137D
:1006E8008501063083120313AD001330AC00AD3022
:1006F800AB00AB0B7D2BAC0B7D2BAD0B7D2BF0300A
:10070800831203138500063083120313AD001330E0
:10071800AC00AD30AB00AB0B8F2BAC0B8F2BAD0B04
:100728008F2B831203138501063083120313AD0048
:100738001330AC00AD30AB00AB0BA02BAC0BA02B37
:10074800AD0BA02BF0308312031385000630831203
:100758000313AD001330AC00AD30AB00AB0BB22BC4
:10076800AC0BB22BAD0BB22B8312031385010630F1
:1007780083120313AD001330AC00AD30AB00AB0BEC
:10078800C32BAC0BC32BAD0BC32BF030831203135D
:100798008500063083120313AD001330AC00AD3072
:1007A800AB00AB0BD52BAC0BD52BAD0BD52B8312DC
:1007B80003138501B90134303906031DE42BE52BF9
:1007C800C82C0130BA000030BB001F08C3391C38E0
:1007D8009F00203083120313AB00AB0BF12B0000FA
:1007E800831203139F14203083120313AB00AB0B47
:1007F800FB2B0000831203131E08AB002B08B60066
:10080800203083120313AB00AB0B082C00008312BB
:1008180003133608AB002B08B5006430A000003085
:10082800A1003508AB00AC012B08A2002C08A300DE
:100838000A128A1500260A128A1183120313200845
:10084800AD002D08B4006430A0000030A1003508C8
:10085800AB00AC012B08A2002C08A3000A128A15D1
:10086800A5250A128A11831203132008AD002D084A
:10087800B2000A30A0000030A1003208AB00AC0181
:100888002B08A2002C08A3000A128A1500260A12B7
:100898008A11831203132008AD002D08B3000A3013
:1008A800A0000030A1003508AB00AC012B08A20065
:1008B8002C08A3000A128A15A5250A128A11831288
:1008C80003132008AD002D08B1003730A40087308D
:1008D800A5000A128A154E250A128A1183120313DB
:1008E80034080A128A15FC240A128A118312031387
:1008F80099001A3083120313AC00F730AB00AB0B2E
:10090800832CAC0B832C882C8312031333080A1214
:100918008A15FC240A128A118312031399001A30CB
:1009280083120313AC00F730AB00AB0B992CAC0B64
:10093800992C9E2C8312031331080A128A15FC2461
:100948000A128A118312031399001A3083120313AF
:10095800AC00F730AB00AB0BAF2CAC0BAF2CB42C0E
:100968000D308312031399001A3083120313AC005D
:10097800F730AB00AB0BBE2CAC0BBE2CC32C0B3032
:10098800831203139900992835303906031DCD2C9D
:10099800CE2C9B2835303906031DD32CD42CE12CC2
:1009A8000030A4008630A5000A128A154E250A12C6
:1009B8008A1183120313BA01BB01061AE42CE52C31
:1009C800E92C0130AE000030AF00061EEC2CED2CF7
:1009D80041282E032F04031DF22CF32C412838083C
:1009E800AB002B08B0003C08AB002B08A000300877
:1009F8000A128A15E2240A128A1117308312031385
:100A08003C06031D082D092D0E2D1030AB002B08B8
:100A1800BC00132D3C08013EAB002B08BC001A306B
:100A280083120313AC00F730AB00AB0B192DAC0BE2
:100A3800192D1E2D831203133708AB002B08B000A5
:100A48003C08AB002B08A00030080A128A15E224E3
:100A58000A128A111730831203133C06031D352D21
:100A6800362D3B2D1030AB002B08BC00402D3C0828
:100A7800013EAB002B08BC00AE01AF0141280A12B1
:100A88008A110C28831603130F178F160F160F14CD
:100A9800831603178901E030880083160313850144
:100AA800FF308600B930870088010730890081133C
:100AB800FF309500831203138501FF3086008701FC
:100AC80088018901831603139F131F129F12831233
:100AD80003131F083F3980389F001F08C339143893
:100AE8009F00203083120313A000A00B792D000073
:100AF800831203131F14FA308316031392003F3036
:100B08008312031397051708F0390C3897001D084E
:100B1800F0390C389D000F3095000F309B00CF3016
:100B280097059D121D128C109214121412158C1C0C
:100B38009E2D9F2D9B2D8C108316031318121815AC
:100B4800831603178715CF308316031399009A016C
:100B5800831203139817181318168316031398167D
:100B68008B178B150B100B170C17831203130C1311
:100B7800831603138C16831203138C12FF3083160B
:100B8800031396000B100800831203132008A20019
:100B98002108A300D52D0130A2070318A30A0030AD
:100BA800A3072308FF00220884000A128A11EC25F3
:100BB8000A128A11003A031DE22DE32DCF2D2008D9
:100BC8002202A0002108031C210A2302A100080018
:100BD800FF1BF62D83137F1883170008840A031957
:100BE800FF0A08007F087F398A000408840A03196D
:060BF800FF0A8200103428
:100C00005334693420346434653473346534613466
:100C1000203469346E34673472346534733461342B
:100C200072342034613420346D346F3464346F3462
:100C3000203463346F346E34743472346F346C34F3
:100C400020345534533441345234543420347034C5
:100C500072346534733469346F346E3465342034DF
:100C60003134003445346C3469346A3461342034AE
:100C700075346E34613420346434653420346C341B
:100C800061347334203473346934673475346934AF
:100C900065346E34743465347334203461346334B1
:100CA000633469346F346E34653473343A340034E9
:100CB00045346C3469346A34613420346C346134C2
:100CC000203470346F3473346934633469346F346E
:100CD0006E342034643465346C34203473346534B9
:100CE000673475346E3464346F342034733465344F
:100CF000723476346F343A34003445346C346934A9
:100D00006A34613420346C346134203470346F348C
:100D100073346934633469346F346E34203464342A
:100D200065346C3420347034723469346D34653415
:100D30007234203473346534723476346F343A3418
:100D400000342834343429344D346F3473347434DB
:100D50007234613472342034763461346C346F34DC
:100D600072342034643465346C34203470346F341D
:100D7000743465346E34633469346F346D3465347F
:100D8000743472346F340034283435342934533495
:100D900061346C3469347234203464346534203402
:100DA00063346F346E34743472346F346C34203482
:100DB00070346F34723420345534533441345234E7
:100DC00054340034283431342934203445346E34DA
:100DD000633465346E3464346534723420346C3476
:100DE00075346334653473342034643465346C345E
:100DF00061346E3474346534723461347334003465
:100E0000283432342934203445346E346334653424
:100E10006E3464346534723420346C347534633425
:100E2000653473342034743472346134733465340B
:100E30007234613473340034513475346534203481
:100E400061346334633469346F346E342034643411
:100E50006534733465346134203465346A34653400
:100E6000633475347434613472343F34003456342E
:100E700061346C346F3472342034643465346C34CF
:100E8000203470346F34743465346E3463346934B0
:100E90006F346D346534743472346F343A340034E2
:100EA000283434342934203447346934723461347A
:100EB00072342034613420346C3461342034693429
:100EC0007A3471347534693465347234643461341D
:100ED00000342834333429342034473469347234AC
:100EE000613472342034613420346C346134203401
:100EF0006434653472346534633468346134003486
:100F000028343234293443346F346E3474347234B8
:100F10006F346C346134723420344334613472344D
:100F200072346F34003428343334293443346F340A
:100F30006E34743472346F346C34613472342034EF
:100F40004C347534633465347334003428343134AC
:100F5000293443346F346E34743472346F346C34E7
:100F6000613472342034473472347534613400345F
:100F70002834333429342034313438343034203474
:100F80005B3467347234613464346F3473345D3489
:100F90000034283432342934203439343034203485
:100FA0005B3467347234613464346F3473345D3469
:100FB00000342834313429342034303420345B3444
:100FC00067347234613464346F3473345D340034A4
:100FD0002834323429342034523465347434723431
:100FE0006F346334653464346534723400342834C7
:100FF00033342934203450346134723470346134E1
:10100000643465346F340034283431342934203466
:101010004134763461346E347A346134723400345D
:10199C00013400341034F1007108831203178D00E8
:1019AC00831603178C130C14831203170C08F00006
:1019BC007008F2007208080083120313A1002008BB
:1019CC00831203178D00831203132108831203174C
:1019DC008C00831603178C130C158B1355308D004C
:1019EC00AA308D008C140C118B1708008312031372
:1019FC00A0002008031D032D042D062D30304D2D85
:101A0C002003031D0A2D0B2D0D2D31304D2D0230D1
:101A1C002006031D122D132D152D32304D2D0330A4
:101A2C002006031D1A2D1B2D1D2D33304D2D04307A
:101A3C002006031D222D232D252D34304D2D053050
:101A4C002006031D2A2D2B2D2D2D35304D2D063026
:101A5C002006031D322D332D352D36304D2D0730FC
:101A6C002006031D3A2D3B2D3D2D37304D2D0830D2
:101A7C002006031D422D432D452D38304D2D0930A8
:101A8C002006031D4A2D4B2D4D2D39304D2D0800B0
:101A9C0083120313A901AA017E2D1A30831203139A
:101AAC00A700F730A600A60B592DA70B592D5E2DBC
:101ABC008312031329082407A7002508A60003187E
:101ACC00A60AA91F6A2DA603831203132608A800D1
:101ADC002808FF00270884000A128A11EC250A1234
:101AEC008A1599000130A9070318AA0A0030AA0721
:101AFC002408A0002508A1000A128A11C8250A1280
:101B0C008A158312031321082A02031D8F2D200826
:101B1C002902031C922D932D532D0D3099001A3050
:101B2C0083120313A700F730A600A60B9B2DA70B5F
:101B3C009B2DA02D0B3083120313990008008312E8
:101B4C000313A601A31FAB2DAC2DB32DA209A30922
:101B5C00A20A0319A30AA601A60AA11FB62DB72D26
:101B6C00BC2DA009A109A00A0319A10A200821046F
:101B7C000319C12DC22DF12DA501A50AD02D0130BF
:101B8C000310A00DA10DFF3E031DC62D0130A400B6
:101B9C002408A507A11FD32DD42DC52D2108230260
:101BAC00031DDA2D20082202031CDD2DDE2DE42D71
:101BBC002008A2022108031CA303A3020130031076
:101BCC00A10CA00CFF3E031DE52D0130A502031D49
:101BDC00F02DF12DD42D26080319F52DF62DFB2D06
:101BEC00A209A309A20A0319A30A2308A100220827
:101BFC00A000080083120313A601A11F062E072EB6
:101C0C000E2EA009A109A00A0319A10AA601A60A71
:101C1C00A31F112E122E1B2EA209A309A20A03190F
:101C2C00A30A0130A4002408A606A701A8012008D5
:101C3C0021040319222E232E5A2EA501A50A312E7A
:101C4C0001300310A00DA10DFF3E031D272E013006
:101C5C00A4002408A507A11F342E352E262E0130F2
:101C6C000310A70DA80DFF3E031D362E21082302DD
:101C7C00031D422E20082202031C452E462E4D2EFB
:101C8C002008A2022108031CA303A302271401307D
:101C9C000310A10CA00CFF3E031D4E2E0130A5021B
:101CAC00031D592E5A2E352E260803195E2E5F2E33
:101CBC00642EA709A809A70A0319A80A2808A100D5
:101CCC002708A0000800831203138C1E6E2E6F2EA3
:101CDC00732E1A08F3007308B9000C1F762E772E9A
:101CEC00DF2E1F0CF300730C0F39053A031D7F2EEA
:101CFC00802EAB2E1E0888000808F3007308B8006D
:101D0C000808F3000310730C803E950008188F2E02
:101D1C00932E831203139716962E83120313971286
:101D2C00831603131E08F30007300310F30CFF3E59
:101D3C00031D9B2E7308F400F40E83120313170873
:101D4C007406EF3974069700DE2E1F0CF300730C2B
:101D5C000F39063A031DB32EB42EDE2E1E08880052
:101D6C000808F3007308B7000808F3000310730C9D
:101D7C00803E9B000818C32EC72E831203139D169A
:101D8C00CA2E831203139D12831603131E08F3002D
:101D9C0007300310F30CFF3E031DCF2E7308F40025
:101DAC00F40E831203131D087406EF3974069D009C
:101DBC000C130B1CE22EE32EF92F0618E62EE72E41
:101DCC00132F780879040319EC2EED2E012F0A300D
:101DDC0085000330F5008A30F4005530F300F30B26
:101DEC00F52EF40BF52EF50BF52EFC2E0830831288
:101DFC0003138500132F023085000330F5008A3061
:101E0C00F4005530F300F30B092FF40B092FF50BED
:101E1C00092F102F8312031385018618162F172FE5
:101E2C00432F7808790403191C2F1D2F312F0930EB
:101E3C0085000330F5008A30F4005530F300F30BC5
:101E4C00252FF40B252FF50B252F2C2F0830831263
:101E5C0003138500432F013085000330F5008A30D1
:101E6C00F4005530F300F30B392FF40B392FF50B2D
:101E7C00392F402F8312031385010619462F472F44
:101E8C004F2F083085000130F8000030F90005169E
:101E9C0085168619522F532F5B2F04308500013085
:101EAC00F8000030F90005178517861D5E2F5F2F8F
:101EBC00662F061D622F632F662F8501F801F9012D
:101ECC00861A692F6A2FF82F7A080A128A15D124DC
:101EDC000A128A1583120313880017307A06031D21
:101EEC00782F792F7E2F1030F3007308FA00822F91
:101EFC000130F3007308FA070808F3000310730CA1
:101F0C00783E950008188B2F8F2F8312031397168A
:101F1C00922F831203139712831603131E08F300D8
:101F2C0007300310F30CFF3E031D972F7308F400CA
:101F3C00F40E8312031317087406EF397406970016
:101F4C001A30F400F830F300F30BAA2FF40BAA2F7D
:101F5C0000007A080A128A15D1240A128A158312F3
:101F6C000313880017307A06031DBD2FBE2FC32F15
:101F7C001030F3007308FA00C72F0130F300730818
:101F8C00FA070808F3000310730C803E9B00081836
:101F9C00D02FD42F831203139D16D72F8312031324
:101FAC009D12831603131E08F30007300310F30C65
:101FBC00FF3E031DDC2F7308F400F40E8312031391
:101FCC001D087406EF3974069D003330F500BB30E4
:101FDC00F400DF30F300F30BF12FF40BF12FF50BC2
:101FEC00F12FF82F0B1077088A00760E8300FE0E67
:041FFC007E0E09004C
:04400E00C420FF3F8C
:00000001FF
