:020000040000FA
:060000000A128A110C280F
:10000800FE00030EF3000A08F4000A128A113F28C2
:100018000A128A110F280A128A11C4210A128A1197
:10002800AF000A128A11C5210A128A11B0000A12F9
:100038008A11C6210A128A11FB000A128A11C721E5
:100048000A128A11FC00A001A101A201A301A401C6
:10005800A501A601A701A801A901AA01AB01AC014C
:10006800AD01AE01F601F701F801F901FA018301CA
:100078000A128A11B229831203138C1E44284528B8
:1000880049281A08F0007008FA000C1F4C284D285F
:10009800A4281F0CF000700C0F39053A031D5528D1
:1000A80056287D281E0888000808F0000310700CE8
:1000B800803E950008186128652883120313971657
:1000C8006828831203139712831603131E08F0007F
:1000D80007300310F00CFF3E031D6D287008F10077
:1000E800F10E8312031317087106EF397106970092
:1000F800A3281E0888000808F0000310700C803E32
:100108009B00081888288C28831203139D168F28B3
:10011800831203139D12831603131E08F000073081
:100128000310F00CFF3E031D94287008F100F10E37
:10013800831203131D087106EF3971069D000C1315
:100148000B1CA728A8282C290618AB28AC28D828C7
:10015800780879040319B128B228C6280A3085001E
:100168000330F2008A30F1005530F000F00BBA2865
:10017800F10BBA28F20BBA28C128083083120313EE
:100188008500D828023085000330F2008A30F1005B
:100198005530F000F00BCE28F10BCE28F20BCE280C
:1001A800D5288312031385018618DB28DC28082943
:1001B800780879040319E128E228F628093085002F
:1001C8000330F2008A30F1005530F000F00BEA28D5
:1001D800F10BEA28F20BEA28F128083083120313FE
:1001E80085000829013085000330F2008A30F100CB
:1001F8005530F000F00BFE28F10BFE28F20BFE281C
:10020800052983120313850106190B290C291429C2
:10021800083085000130F8000030F9000516851611
:100228008619172918292029043085000130F8007B
:100238000030F90005178517861D232924292B2945
:10024800061D272928292B298501F801F9010B10FA
:1002580074088A00730E8300FE0E7E0E0900831652
:1002680003130F178F160F160F1483160317890120
:1002780070308800831603138501FF308600B9307B
:1002880087008801033089008113FF3095008312AD
:10029800031385010F3086008701880189018316C1
:1002A80003139F131F129F12831203131F083F3952
:1002B80080389F001F08C33914389F002130F5008B
:1002C800F50B6429831203131F14FA3083160313E2
:1002D80092003F308312031397051708F0390C3842
:1002E80097001D08F0390C389D000F3095000F302D
:1002F8009B00CF3097059D121D128C10921412147A
:1003080012158C1C8829892985298C1083160313BA
:1003180018121815831603178715CF308316031381
:1003280099009A0183120313981718131816831645
:10033800031398168B178B150B100B170C178312BA
:1003480003130C13831603138C16831203138C12D6
:100358000F308316031396000B1008000A128A1137
:1003680033210A128A11831203139F140A128A1165
:100378000C2801308A000408840A8207003461349A
:0803880010340034013400348C
:04400E00C420FF3F8C
:00000001FF
